{
  "address": "0x008509cfa070c8E94dF3906b90935917Cb7A2cB7",
  "abi": [
    {
      "inputs": [
        {
          "internalType": "address",
          "name": "priceFeedAddress",
          "type": "address"
        }
      ],
      "stateMutability": "nonpayable",
      "type": "constructor"
    },
    {
      "stateMutability": "payable",
      "type": "fallback"
    },
    {
      "inputs": [],
      "name": "fund",
      "outputs": [],
      "stateMutability": "payable",
      "type": "function"
    },
    {
      "inputs": [
        {
          "internalType": "address",
          "name": "",
          "type": "address"
        }
      ],
      "name": "funderAddressToPrice",
      "outputs": [
        {
          "internalType": "uint256",
          "name": "",
          "type": "uint256"
        }
      ],
      "stateMutability": "view",
      "type": "function"
    },
    {
      "inputs": [
        {
          "internalType": "uint256",
          "name": "",
          "type": "uint256"
        }
      ],
      "name": "funders",
      "outputs": [
        {
          "internalType": "address",
          "name": "",
          "type": "address"
        }
      ],
      "stateMutability": "view",
      "type": "function"
    },
    {
      "inputs": [],
      "name": "mimimumUsd",
      "outputs": [
        {
          "internalType": "uint256",
          "name": "",
          "type": "uint256"
        }
      ],
      "stateMutability": "view",
      "type": "function"
    },
    {
      "inputs": [],
      "name": "owner",
      "outputs": [
        {
          "internalType": "address",
          "name": "",
          "type": "address"
        }
      ],
      "stateMutability": "view",
      "type": "function"
    },
    {
      "inputs": [],
      "name": "withdraw",
      "outputs": [],
      "stateMutability": "nonpayable",
      "type": "function"
    },
    {
      "stateMutability": "payable",
      "type": "receive"
    }
  ],
  "transactionHash": "0x7ff7b6e23ba0eee7ba4e00b41d7a60fb5b799bd092052e7da637d11f0a104016",
  "args": [
    "0xD4a33860578De61DBAbDc8BFdb98FD742fA7028e"
  ],
  "numDeployments": 1,
  "solcInputHash": "677af740b5c39d7e81630a2137bdb06c",
  "bytecode": "0x6080604052678ac7230489e8000060005534801561001c57600080fd5b50604051610e3b380380610e3b833981810160405281019061003e9190610129565b33600360006101000a81548173ffffffffffffffffffffffffffffffffffffffff021916908373ffffffffffffffffffffffffffffffffffffffff16021790555080600460006101000a81548173ffffffffffffffffffffffffffffffffffffffff021916908373ffffffffffffffffffffffffffffffffffffffff16021790555050610156565b600080fd5b600073ffffffffffffffffffffffffffffffffffffffff82169050919050565b60006100f6826100cb565b9050919050565b610106816100eb565b811461011157600080fd5b50565b600081519050610123816100fd565b92915050565b60006020828403121561013f5761013e6100c6565b5b600061014d84828501610114565b91505092915050565b610cd6806101656000396000f3fe6080604052600436106100595760003560e01c80633ccfd60b146100725780636c6b0a88146100895780638da5cb5b146100b45780639ae025e2146100df578063b60d42881461011c578063dc0d3dff1461012657610068565b3661006857610066610163565b005b610070610163565b005b34801561007e57600080fd5b50610087610284565b005b34801561009557600080fd5b5061009e6104d0565b6040516100ab91906106e0565b60405180910390f35b3480156100c057600080fd5b506100c96104d6565b6040516100d6919061073c565b60405180910390f35b3480156100eb57600080fd5b5061010660048036038101906101019190610788565b6104fc565b60405161011391906106e0565b60405180910390f35b610124610163565b005b34801561013257600080fd5b5061014d600480360381019061014891906107e1565b610514565b60405161015a919061073c565b60405180910390f35b60005461019b600460009054906101000a900473ffffffffffffffffffffffffffffffffffffffff163461055390919063ffffffff16565b116101db576040517f08c379a00000000000000000000000000000000000000000000000000000000081526004016101d29061086b565b60405180910390fd5b6001339080600181540180825580915050600190039060005260206000200160009091909190916101000a81548173ffffffffffffffffffffffffffffffffffffffff021916908373ffffffffffffffffffffffffffffffffffffffff16021790555034600260003373ffffffffffffffffffffffffffffffffffffffff1673ffffffffffffffffffffffffffffffffffffffff16815260200190815260200160002081905550565b3373ffffffffffffffffffffffffffffffffffffffff16600360009054906101000a900473ffffffffffffffffffffffffffffffffffffffff1673ffffffffffffffffffffffffffffffffffffffff1614610314576040517f08c379a000000000000000000000000000000000000000000000000000000000815260040161030b906108d7565b60405180910390fd5b60005b6001805490508110156103c05760006001828154811061033a576103396108f7565b5b9060005260206000200160009054906101000a900473ffffffffffffffffffffffffffffffffffffffff1690506000600260008373ffffffffffffffffffffffffffffffffffffffff1673ffffffffffffffffffffffffffffffffffffffff168152602001908152602001600020819055505080806103b890610955565b915050610317565b50600067ffffffffffffffff8111156103dc576103db61099d565b5b60405190808252806020026020018201604052801561040a5781602001602082028036833780820191505090505b5060019080519060200190610420929190610620565b5060003373ffffffffffffffffffffffffffffffffffffffff1647604051610447906109fd565b60006040518083038185875af1925050503d8060008114610484576040519150601f19603f3d011682016040523d82523d6000602084013e610489565b606091505b50509050806104cd576040517f08c379a00000000000000000000000000000000000000000000000000000000081526004016104c490610a5e565b60405180910390fd5b50565b60005481565b600360009054906101000a900473ffffffffffffffffffffffffffffffffffffffff1681565b60026020528060005260406000206000915090505481565b6001818154811061052457600080fd5b906000526020600020016000915054906101000a900473ffffffffffffffffffffffffffffffffffffffff1681565b60008061055f8361058f565b90506000670de0b6b3a764000082866105789190610a7e565b6105829190610aef565b9050809250505092915050565b6000808273ffffffffffffffffffffffffffffffffffffffff1663feaf968c6040518163ffffffff1660e01b815260040160a060405180830381865afa1580156105dd573d6000803e3d6000fd5b505050506040513d601f19601f820116820180604052508101906106019190610bad565b5050509150506402540be400816106189190610c28565b915050919050565b828054828255906000526020600020908101928215610699579160200282015b828111156106985782518260006101000a81548173ffffffffffffffffffffffffffffffffffffffff021916908373ffffffffffffffffffffffffffffffffffffffff16021790555091602001919060010190610640565b5b5090506106a691906106aa565b5090565b5b808211156106c35760008160009055506001016106ab565b5090565b6000819050919050565b6106da816106c7565b82525050565b60006020820190506106f560008301846106d1565b92915050565b600073ffffffffffffffffffffffffffffffffffffffff82169050919050565b6000610726826106fb565b9050919050565b6107368161071b565b82525050565b6000602082019050610751600083018461072d565b92915050565b600080fd5b6107658161071b565b811461077057600080fd5b50565b6000813590506107828161075c565b92915050565b60006020828403121561079e5761079d610757565b5b60006107ac84828501610773565b91505092915050565b6107be816106c7565b81146107c957600080fd5b50565b6000813590506107db816107b5565b92915050565b6000602082840312156107f7576107f6610757565b5b6000610805848285016107cc565b91505092915050565b600082825260208201905092915050565b7f646f6e2774206861766520656e666f75676820616d6f756e7400000000000000600082015250565b600061085560198361080e565b91506108608261081f565b602082019050919050565b6000602082019050818103600083015261088481610848565b9050919050565b7f596f757220617265206e6f74206f776e65722100000000000000000000000000600082015250565b60006108c160138361080e565b91506108cc8261088b565b602082019050919050565b600060208201905081810360008301526108f0816108b4565b9050919050565b7f4e487b7100000000000000000000000000000000000000000000000000000000600052603260045260246000fd5b7f4e487b7100000000000000000000000000000000000000000000000000000000600052601160045260246000fd5b6000610960826106c7565b91507fffffffffffffffffffffffffffffffffffffffffffffffffffffffffffffffff820361099257610991610926565b5b600182019050919050565b7f4e487b7100000000000000000000000000000000000000000000000000000000600052604160045260246000fd5b600081905092915050565b50565b60006109e76000836109cc565b91506109f2826109d7565b600082019050919050565b6000610a08826109da565b9150819050919050565b7f5472616e73666572204661696c65640000000000000000000000000000000000600082015250565b6000610a48600f8361080e565b9150610a5382610a12565b602082019050919050565b60006020820190508181036000830152610a7781610a3b565b9050919050565b6000610a89826106c7565b9150610a94836106c7565b9250828202610aa2816106c7565b91508282048414831517610ab957610ab8610926565b5b5092915050565b7f4e487b7100000000000000000000000000000000000000000000000000000000600052601260045260246000fd5b6000610afa826106c7565b9150610b05836106c7565b925082610b1557610b14610ac0565b5b828204905092915050565b600069ffffffffffffffffffff82169050919050565b610b3f81610b20565b8114610b4a57600080fd5b50565b600081519050610b5c81610b36565b92915050565b6000819050919050565b610b7581610b62565b8114610b8057600080fd5b50565b600081519050610b9281610b6c565b92915050565b600081519050610ba7816107b5565b92915050565b600080600080600060a08688031215610bc957610bc8610757565b5b6000610bd788828901610b4d565b9550506020610be888828901610b83565b9450506040610bf988828901610b98565b9350506060610c0a88828901610b98565b9250506080610c1b88828901610b4d565b9150509295509295909350565b6000610c3382610b62565b9150610c3e83610b62565b9250828202610c4c81610b62565b91507f80000000000000000000000000000000000000000000000000000000000000008414600084121615610c8457610c83610926565b5b8282058414831517610c9957610c98610926565b5b509291505056fea2646970667358221220b27ae40ec29663ff48fdb222b0734273bfe5822dc460bbf443082e22b2be473464736f6c63430008110033",
  "devdoc": {
    "kind": "dev",
    "methods": {},
    "version": 1
  },
  "userdoc": {
    "kind": "user",
    "methods": {},
    "version": 1
  },
  "storageLayout": {
    "storage": [
      {
        "astId": 57,
        "contract": "contracts/FundMe.sol:FundMe",
        "label": "mimimumUsd",
        "offset": 0,
        "slot": "0",
        "type": "t_uint256"
      },
      {
        "astId": 60,
        "contract": "contracts/FundMe.sol:FundMe",
        "label": "funders",
        "offset": 0,
        "slot": "1",
        "type": "t_array(t_address)dyn_storage"
      },
      {
        "astId": 64,
        "contract": "contracts/FundMe.sol:FundMe",
        "label": "funderAddressToPrice",
        "offset": 0,
        "slot": "2",
        "type": "t_mapping(t_address,t_uint256)"
      },
      {
        "astId": 66,
        "contract": "contracts/FundMe.sol:FundMe",
        "label": "owner",
        "offset": 0,
        "slot": "3",
        "type": "t_address"
      },
      {
        "astId": 69,
        "contract": "contracts/FundMe.sol:FundMe",
        "label": "priceFeed",
        "offset": 0,
        "slot": "4",
        "type": "t_contract(AggregatorV3Interface)45"
      }
    ],
    "types": {
      "t_address": {
        "encoding": "inplace",
        "label": "address",
        "numberOfBytes": "20"
      },
      "t_array(t_address)dyn_storage": {
        "base": "t_address",
        "encoding": "dynamic_array",
        "label": "address[]",
        "numberOfBytes": "32"
      },
      "t_contract(AggregatorV3Interface)45": {
        "encoding": "inplace",
        "label": "contract AggregatorV3Interface",
        "numberOfBytes": "20"
      },
      "t_mapping(t_address,t_uint256)": {
        "encoding": "mapping",
        "key": "t_address",
        "label": "mapping(address => uint256)",
        "numberOfBytes": "32",
        "value": "t_uint256"
      },
      "t_uint256": {
        "encoding": "inplace",
        "label": "uint256",
        "numberOfBytes": "32"
      }
    }
  }
}